:100000000C942A000C9447000C9447000C94470071
:100010000C9447000C9447000C94AF090C94150AFB
:100020000C94E2090C947C090C9447000C94470052
:100030000C9447000C9447000C9447000C94470024
:100040000C9447000C9447000C9447000C94470014
:100050000C94470011241FBECFE5D8E0DEBFCDBF12
:1000600010E0A8E6B0E001C01D92A238B107E1F7A8
:1000700010E0A0E6B0E0E4E6F6E402C005900D92E0
:10008000A836B107D9F70E94A9130C9430230C9419
:100090000000EF92FF920F931F937B018C0120E0F1
:1000A00030E040E05FE40E94F50388238CF0C80153
:1000B000B70120E030E040E05FE40E94C1010E940F
:1000C00055049B01AC01205030404040504806C0D0
:1000D000C801B7010E9455049B01AC01B901CA01D6
:1000E0001F910F91FF90EF900895A0E0B0E0EBE733
:1000F000F0E00C94F922DC012B01FA019C91923082
:1001000008F439C1EB018881823008F433C194309E
:1001100069F4843009F02FC111969C91119789815F
:10012000981709F428C1A0E6B0E025C1843009F48D
:1001300021C18230A9F4923009F01DC19A01AD01AC
:1001400088E0EA010990AE01E90109929E0181501F
:10015000C1F7E201898111969C918923818308C1AD
:10016000923009F407C112962D903C901397EB0141
:100170008A819B811496AD90BD90CD90DC901797AD
:10018000EC80FD800E811F819101281B390BB90184
:1001900037FF04C066277727621B730B6032710537
:1001A0000CF061C0121613066CF537014801062EDB
:1001B00004C096948794779467940A94D2F721E0C8
:1001C00030E040E050E004C0220F331F441F551FB1
:1001D0006A95D2F721503040404050402E213F21B7
:1001E00040235123211531054105510521F021E01E
:1001F00030E040E050E079018A01E628F72808293C
:1002000019293CC0232BD1F1260E371E350146019A
:10021000062E04C096948794779467940A94D2F734
:1002200021E030E040E050E004C0220F331F441FC3
:10023000551F6A95D2F721503040404050402A2146
:100240003B214C215D21211531054105510521F04E
:1002500021E030E040E050E059016A01A628B728CB
:10026000C828D9280BC0821593052CF01C01AA249C
:10027000BB24650103C0EE24FF24870111969C91E5
:10028000D20111968C91981709F445C0992339F041
:10029000A80197012A193B094C095D0906C0A6016E
:1002A00095012E193F09400B510B57FD08C01182D3
:1002B0003382228224833583468357831DC081E0A5
:1002C00081833382228288279927DC01821B930B4A
:1002D000A40BB50B84839583A683B7830DC0220F2F
:1002E000331F441F551F24833583468357838281E0
:1002F000938101979383828324813581468157813D
:10030000DA01C9010197A109B1098F5F9F4FAF4F72
:10031000BF4328F30BC0918333822282EA0CFB1C7B
:100320000C1D1D1DE482F5820683178383E0808304
:10033000248135814681578157FF1AC0C901AA27F8
:1003400097FDA095BA2F81709070A070B0705695EF
:10035000479537952795822B932BA42BB52B848318
:100360009583A683B7838281938101969383828349
:10037000DF0101C0D201CD01CDB7DEB7E2E10C94BF
:100380001523A0E2B0E0E7ECF1E00C9405236983CB
:100390007A838B839C832D833E834F835887E9E048
:1003A000EE2EF12CEC0EFD1ECE010196B7010E943F
:1003B0007E058E010F5E1F4FCE010596B8010E948B
:1003C0007E058A8991E089278A8BC701B801AE0131
:1003D000475E5F4F0E9475000E94A904A096E6E068
:1003E0000C942123A0E2B0E0E8EFF1E00C940523A7
:1003F00069837A838B839C832D833E834F835887C5
:10040000F9E0EF2EF12CEC0EFD1ECE010196B701A6
:100410000E947E058E010F5E1F4FCE010596B8012A
:100420000E947E05C701B801AE01475E5F4F0E9482
:1004300075000E94A904A096E6E00C942123A0E296
:10044000B0E0E5E2F2E00C94F92269837A838B83D1
:100450009C832D833E834F835887CE010196BE0136
:10046000675F7F4F0E947E05CE010596BE016F5EDD
:100470007F4F0E947E059985923088F0898982306D
:10048000C8F0943019F4823051F404C0843029F457
:10049000923081F480E690E0C6C0923049F420E0CA
:1004A0009A858A89981321E02A87CE010996BBC0D4
:1004B000823049F420E09A858A89981321E02A8BBA
:1004C000CE014196B0C02D843E844F8458886D88FB
:1004D0007E888F88988CEE24FF248701AA24BB2471
:1004E000650140E050E060E070E0E0E0F0E0C10174
:1004F00081709070892BE9F0E60CF71C081D191D1E
:100500009A01AB012A0D3B1D4C1D5D1D80E090E062
:10051000A0E0B0E0E614F7040805190520F481E036
:1005200090E0A0E0B0E0BA01A901480F591F6A1F8E
:100530007B1FAA0CBB1CCC1CDD1C97FE08C081E0F5
:1005400090E0A0E0B0E0A82AB92ACA2ADB2A3196B6
:10055000E032F10549F0660C771C881C991C569412
:10056000479437942794C3CFFA85EA892B893C892D
:100570008B859C85280F391F2E5F3F4F17C0CA01FE
:1005800081709070892B61F016950795F794E79428
:1005900080E090E0A0E0B0E8E82AF92A0A2B1B2BC3
:1005A00076956795579547952F5F3F4F77FDE7CF36
:1005B0000CC0440F551F661F771F17FD4160EE0CDE
:1005C000FF1C001F111F21503040403090E05907A0
:1005D00090E0690790E4790760F32B8F3C8FDB0193
:1005E000CA018F779070A070B07080349105A1051A
:1005F000B10561F447FD0AC0E114F10401051105DC
:1006000029F0405C5F4F6F4F7F4F40781A8EFE1786
:1006100011F081E08A8F4D8F5E8F6F8F78A383E01A
:10062000898FCE0149960E94A904A096E2E10C941C
:100630001523A8E1B0E0EFE1F3E00C940123698316
:100640007A838B839C832D833E834F835887B9E0C5
:10065000EB2EF12CEC0EFD1ECE010196B7010E948F
:100660007E058E010F5E1F4FCE010596B8010E94D8
:100670007E052985223008F47EC03989323010F495
:10068000B8017CC08A859A8989278A87243011F02D
:10069000223031F4231709F06EC060E670E06EC0BE
:1006A000343039F41D861E861F86188A1C861B86E8
:1006B00004C0323021F484E08987B7015FC02B8504
:1006C0003C858B899C89281B390B3C872B87ED84C3
:1006D000FE840F851889AD88BE88CF88D88CEA142F
:1006E000FB040C051D0540F4EE0CFF1C001F111F40
:1006F000215030403C872B8720E030E040E050E044
:1007000080E090E0A0E0B0E460E070E0EA14FB0478
:100710000C051D0540F0282B392B4A2B5B2BEA18C2
:10072000FB080C091D09B695A79597958795EE0CC2
:10073000FF1C001F111F6F5F7F4F6F31710531F775
:10074000DA01C9018F779070A070B0708034910584
:10075000A105B10561F427FD0AC0E114F10401050A
:10076000110529F0205C3F4F4F4F5F4F20782D87B8
:100770003E874F87588BBE01675F7F4FCB010E943A
:10078000A9046896EAE00C941D23A8E1B0E0EBEC24
:10079000F3E00C94052369837A838B839C832D83F8
:1007A0003E834F83588789E0E82EF12CEC0EFD1E26
:1007B000CE010196B7010E947E058E010F5E1F4F8C
:1007C000CE010596B8010E947E058985823040F0F1
:1007D0008989823028F0C701B8010E94F60501C05E
:1007E0008FEF6896E6E00C942123A8E1B0E0EBEFF0
:1007F000F3E00C94052369837A838B839C832D8398
:100800003E834F83588789E0E82EF12CEC0EFD1EC5
:10081000CE010196B7010E947E058E010F5E1F4F2B
:10082000CE010596B8010E947E058985823040F090
:100830008989823028F0C701B8010E94F60501C0FD
:100840008FEF6896E6E00C942123A8E1B0E0EBE29C
:10085000F4E00C94052369837A838B839C832D8336
:100860003E834F83588789E0E82EF12CEC0EFD1E65
:10087000CE010196B7010E947E058E010F5E1F4FCB
:10088000CE010596B8010E947E058985823040F030
:100890008989823028F0C701B8010E94F60501C09D
:1008A00081E06896E6E00C942123ACE0B0E0EBE553
:1008B000F4E00C94092369837A838B839C83CE01B3
:1008C0000196BE016B5F7F4F0E947E058D81823055
:1008D00061F1823050F1843021F48E81882351F10E
:1008E0002EC02F81388537FD20C06E812F31310514
:1008F0001CF06623F9F023C08EE190E0821B930B7D
:1009000029853A854B855C8504C056954795379572
:1009100027958A95D2F76623B1F05095409530958A
:1009200021953F4F4F4F5F4F0EC020E030E040E039
:1009300050E009C02FEF3FEF4FEF5FE704C020E02A
:1009400030E040E050E8B901CA012C96E2E00C9496
:100950002523DF92EF92FF920F931F93FC01E48017
:10096000F58006811781D1808081823048F480E053
:1009700090E0A0E1B0E0E82AF92A0A2B1B2BA5C0E1
:10098000843009F49FC0823021F4EE24FF248701D3
:1009900005C0E114F1040105110519F4E0E0F0E0EF
:1009A00096C0628173819FEF623879070CF05BC05B
:1009B00022E83FEF261B370B2A3131052CF020E0CF
:1009C00030E040E050E02AC0B801A701022E04C088
:1009D00076956795579547950A94D2F781E090E010
:1009E000A0E0B0E004C0880F991FAA1FBB1F2A9582
:1009F000D2F70197A109B1098E219F21A023B1232C
:100A00000097A105B10521F081E090E0A0E0B0E001
:100A10009A01AB01282B392B4A2B5B2BDA01C90138
:100A20008F779070A070B07080349105A105B105EA
:100A300039F427FF09C0205C3F4F4F4F5F4F04C080
:100A4000215C3F4F4F4F5F4FE0E0F0E02030A0E0EF
:100A50003A07A0E04A07A0E45A0710F0E1E0F0E00E
:100A600079018A0127C06038710564F5FB01E158FE
:100A7000FF4FD801C7018F779070A070B07080349D
:100A80009105A105B10539F4E7FE0DC080E490E0C1
:100A9000A0E0B0E004C08FE390E0A0E0B0E0E80E9A
:100AA000F91E0A1F1B1F17FF05C016950795F7941F
:100AB000E794319687E016950795F794E7948A9521
:100AC000D1F705C0EE24FF248701EFEFF0E06E2F91
:100AD000679566276795902F9F77D794DD24D794E5
:100AE0008E2F8695492F462B582F5D29B701CA01B5
:100AF0001F910F91FF90EF90DF900895FC01DB01B3
:100B0000408151812281622F6F7770E0221F22275E
:100B1000221F9381892F880F822B282F30E0991F65
:100B20009927991F11969C93119721153105A9F5C5
:100B3000411551056105710511F482E037C082E865
:100B40009FEF13969C938E9312979A01AB0167E0E7
:100B5000220F331F441F551F6A95D1F783E08C93F2
:100B60000DC0220F331F441F551F12968D919C916B
:100B70001397019713969C938E931297203080E0E1
:100B8000380780E0480780E4580758F314962D93FF
:100B90003D934D935C93179708952F3F310579F45A
:100BA000411551056105710519F484E08C93089590
:100BB00064FF03C081E08C9312C01C9210C02F57B9
:100BC000304013963C932E93129783E08C9387E0EA
:100BD000440F551F661F771F8A95D1F770641496CE
:100BE0004D935D936D937C93179708951F93DC014C
:100BF000FB019C91923008F447C08081823008F458
:100C000043C0943051F411961C91843099F5818140
:100C1000682F70E0611B71093FC0843021F0923071
:100C200031F48230B9F18181882389F12DC0119688
:100C30001C9111978230F1F081811817D9F4129626
:100C40002D913C911397828193818217930794F0A1
:100C500028173907BCF014968D919D910D90BC9189
:100C6000A02D2481358146815781281739074A07ED
:100C70005B0718F4112341F00AC082179307A407F9
:100C8000B50740F4112319F061E070E005C06FEF83
:100C90007FEF02C060E070E0CB011F910895DF9309
:100CA000CF93CDB7DEB729970FB6F894DEBF0FBE4E
:100CB000CDBF89836A834B838981282F30E03987B0
:100CC0002887888599858230910509F490C0288508
:100CD00039852330310564F488859985009709F4B6
:100CE0004CC0288539852130310509F463C09BC08B
:100CF000888599858330910519F1288539852430B7
:100D0000310509F090C0AFE4B0E0EFE4F0E080819D
:100D100081608C93AFE4B0E0EFE4F0E0808182602A
:100D20008C93AEE4B0E0EEE4F0E0808188608C93D8
:100D3000AEE4B0E0EEE4F0E0808180618C9373C0BB
:100D4000AFE4B0E0EFE4F0E080818E7F8C93AFE41D
:100D5000B0E0EFE4F0E0808182608C93AEE4B0E03C
:100D6000EEE4F0E0808188608C93AEE4B0E0EEE4E5
:100D7000F0E0808180618C9356C0AFE4B0E0EFE496
:100D8000F0E080818E7F8C93AFE4B0E0EFE4F0E0A0
:100D900080818D7F8C93AEE4B0E0EEE4F0E0808162
:100DA000877F8C93AEE4B0E0EEE4F0E080818F7E4C
:100DB0008C9339C0AFE4B0E0EFE4F0E080818E7F47
:100DC0008C93AFE4B0E0EFE4F0E080818D7F8C9312
:100DD000AEE4B0E0EEE4F0E0808188608C93AEE4B5
:100DE000B0E0EEE4F0E080818F7E8C931CC0AFE435
:100DF000B0E0EFE4F0E080818E7F8C93AFE4B0E070
:100E0000EFE4F0E080818D7F8C93AEE4B0E0EEE41F
:100E1000F0E0808188608C93AEE4B0E0EEE4F0E036
:100E2000808180618C938A81282F30E03F832E83DC
:100E30008E819F818330910509F459C02E813F81B5
:100E4000243031057CF48E819F818130910589F1B8
:100E50002E813F8122303105DCF58E819F81009704
:100E6000D1F08FC02E813F812530310509F45DC05E
:100E70008E819F81853091050CF448C02E813F8181
:100E80002630310509F460C08E819F81873091053D
:100E900009F469C076C0AEE4B0E0EEE4F0E0808131
:100EA000887F8C93AEE4B0E0EEE4F0E080818C9338
:100EB00068C0AEE4B0E0EEE4F0E08081887F8C931F
:100EC000AEE4B0E0EEE4F0E0808181608C9359C044
:100ED000AEE4B0E0EEE4F0E08081887F8C93AEE495
:100EE000B0E0EEE4F0E0808182608C934AC0AEE432
:100EF000B0E0EEE4F0E08081887F8C93AEE4B0E077
:100F0000EEE4F0E0808183608C933BC0AEE4B0E01F
:100F1000EEE4F0E08081887F8C93AEE4B0E0EEE414
:100F2000F0E0808184608C932CC0AEE4B0E0EEE40D
:100F3000F0E08081887F8C93AEE4B0E0EEE4F0E0F6
:100F4000808185608C931DC0AEE4B0E0EEE4F0E0FB
:100F50008081887F8C93AEE4B0E0EEE4F0E08081A5
:100F600086608C930EC0AEE4B0E0EEE4F0E08081E9
:100F7000887F8C93AEE4B0E0EEE4F0E0808187609F
:100F80008C938B81282F30E03D832C838C819D8135
:100F90008130910541F12C813D812230310509F4E8
:100FA0003FC08C819D81009709F056C0AFE4B0E04E
:100FB000EFE4F0E080818F7B8C93AFE4B0E0EFE46E
:100FC000F0E080818F778C93AFE4B0E0EFE4F0E065
:100FD00080818F7E8C93AFE4B0E0EFE4F0E080811D
:100FE0008F7D8C9339C0AFE4B0E0EFE4F0E0808116
:100FF0008F7B8C93AFE4B0E0EFE4F0E08081806819
:101000008C93AFE4B0E0EFE4F0E080818F7E8C93CE
:10101000AFE4B0E0EFE4F0E0808180628C931CC02C
:10102000AFE4B0E0EFE4F0E0808180648C93AFE463
:10103000B0E0EFE4F0E0808180688C93AFE4B0E052
:10104000EFE4F0E0808180618C93AFE4B0E0EFE406
:10105000F0E0808180628C9329960FB6F894DEBF11
:101060000FBECDBFCF91DF910895DF93CF9300D016
:101070000F92CDB7DEB789838981282F30E03B837B
:101080002A838A819B818130910589F02A813B8165
:1010900022303105A1F08A819B810097F1F4A9E506
:1010A000B0E0E9E5F0E0808180618C9316C0A9E5AD
:1010B000B0E0E9E5F0E0808188608C930EC0A9E59E
:1010C000B0E0E9E5F0E0808180618C93A9E5B0E0D3
:1010D000E9E5F0E0808188608C930F900F900F908D
:1010E000CF91DF910895DF93CF9300D00F92CDB7CA
:1010F000DEB789838981282F30E03B832A838A8168
:101100009B818130910589F02A813B812230310514
:10111000A1F08A819B810097F1F4A9E5B0E0E9E5AF
:10112000F0E080818F7E8C9316C0A9E5B0E0E9E500
:10113000F0E08081877F8C930EC0A9E5B0E0E9E5FF
:10114000F0E080818F7E8C93A9E5B0E0E9E5F0E0E6
:101150008081877F8C930F900F900F90CF91DF91BC
:101160000895DF93CF93CDB7DEB7A9E5B0E0E9E509
:10117000F0E0808184608C93CF91DF910895DF93BC
:10118000CF93CDB7DEB7A9E5B0E0E9E5F0E0808127
:101190008B7F8C93CF91DF910895DF93CF9300D015
:1011A000CDB7DEB79A83898389819A819093700045
:1011B00080936F000F900F90CF91DF910895DF9390
:1011C000CF9300D0CDB7DEB79A83898389819A8186
:1011D00090937200809371000F900F90CF91DF91E8
:1011E0000895DF93CF9300D0CDB7DEB79A8389837C
:1011F00089819A8190937400809373000F900F906F
:10120000CF91DF910895DF93CF930F92CDB7DEB7E3
:1012100089838981882341F4AEE4B0E0EEE4F0E014
:1012200080818F7B8C930AC08981813039F4AEE450
:10123000B0E0EEE4F0E0808180648C930F90CF9179
:10124000DF910895DF93CF93CDB7DEB7A9E5B0E086
:10125000E9E5F0E0808180628C93CF91DF91089581
:10126000DF93CF93CDB7DEB7A9E5B0E0E9E5F0E0D5
:1012700080818F7D8C93CF91DF910895DF93CF9301
:10128000CDB7DEB780916800882379F4E6E4F0E01A
:101290008081918190936A008093690080E00E9430
:1012A000030981E08093680024C080916800813048
:1012B00079F4E6E4F0E08081918190936C00809372
:1012C0006B0081E00E94030982E08093680011C0F6
:1012D00080916800823069F4E6E4F0E080819181D9
:1012E00090936E0080936D000E94300983E080939C
:1012F0006800CF91DF9108951F920F920FB60F9261
:1013000011242F933F934F935F936F937F938F930A
:101310009F93AF93BF93EF93FF93DF93CF93CDB79B
:10132000DEB780916F0090917000009729F0E091F6
:101330006F00F09170000995CF91DF91FF91EF91CF
:10134000BF91AF919F918F917F916F915F914F91DD
:101350003F912F910F900FBE0F901F9018951F92E5
:101360000F920FB60F9211242F933F934F935F93D9
:101370006F937F938F939F93AF93BF93EF93FF935D
:10138000DF93CF93CDB7DEB780917100909172005B
:10139000009729F0E0917100F09172000995CF91CA
:1013A000DF91FF91EF91BF91AF919F918F917F91CD
:1013B0006F915F914F913F912F910F900FBE0F90C2
:1013C0001F9018951F920F920FB60F9211242F9312
:1013D0003F934F935F936F937F938F939F93AF93BD
:1013E000BF93EF93FF93DF93CF93CDB7DEB7809199
:1013F000750090917600009729F0E0917500F091CA
:1014000076000995CF91DF91FF91EF91BF91AF9158
:101410009F918F917F916F915F914F913F912F910C
:101420000F900FBE0F901F9018951F920F920FB63E
:101430000F9211242F933F934F935F936F937F935A
:101440008F939F93AF93BF93EF93FF93DF93CF93CC
:10145000CDB7DEB78091730090917400009729F0AA
:10146000E0917300F09174000995CF91DF91FF91A5
:10147000EF91BF91AF919F918F917F916F915F910C
:101480004F913F912F910F900FBE0F901F90189585
:10149000DF93CF93CDB7DEB7AFE5B0E0EFE5F0E097
:1014A000808180688C93CF91DF910895DF93CF93F3
:1014B000CDB7DEB7AFE5B0E0EFE5F0E080818F7744
:1014C0008C93CF91DF910895DF93CF930F92CDB797
:1014D000DEB789838981813079F4A5E5B0E0E5E55F
:1014E000F0E080818E7F8C93A5E5B0E0E5E5F0E04B
:1014F000808182608C9335C08981823079F4A5E542
:10150000B0E0E5E5F0E0808181608C93A5E5B0E096
:10151000E5E5F0E0808182608C9323C0898183308F
:1015200079F4A5E5B0E0E5E5F0E080818E7F8C936D
:10153000A5E5B0E0E5E5F0E080818D7F8C9311C0FA
:101540008981843071F4A5E5B0E0E5E5F0E08081C3
:1015500081608C93A5E5B0E0E5E5F0E080818D7FCA
:101560008C93ABE5B0E0EBE5F0E0808180648C9398
:101570000F90CF91DF910895DF93CF930F92CDB766
:10158000DEB789838981813079F4A5E5B0E0E5E5AE
:10159000F0E080818B7F8C93A5E5B0E0E5E5F0E09D
:1015A000808188608C9335C08981823079F4A5E58B
:1015B000B0E0E5E5F0E0808184608C93A5E5B0E0E3
:1015C000E5E5F0E0808188608C9323C089818330D9
:1015D00079F4A5E5B0E0E5E5F0E08081877F8C93C4
:1015E000A5E5B0E0E5E5F0E080818B7F8C9311C04C
:1015F0008981843071F4A5E5B0E0E5E5F0E0808113
:1016000084608C93A5E5B0E0E5E5F0E08081877F1C
:101610008C93ABE5B0E0EBE5F0E0808180688C93E3
:101620000F90CF91DF910895DF93CF930F92CDB7B5
:10163000DEB789838981813041F4A5E5B0E0E5E535
:10164000F0E080818F7B8C930AC08981823039F4ED
:10165000A5E5B0E0E5E5F0E0808180648C93ABE542
:10166000B0E0EBE5F0E0808180628C930F90CF9149
:10167000DF910895DF93CF93CDB7DEB727970FB6ED
:10168000F894DEBF0FBECDBF89836A834B83898107
:10169000853008F0F4C08981882309F4F0C08A817C
:1016A000883008F0ECC08B81882309F075C08981EF
:1016B000282F30E03F832E838E819F8182309105D9
:1016C00061F12E813F812330310534F48E819F8179
:1016D0008130910569F0D3C02E813F8123303105DF
:1016E00089F18E819F818430910509F440C0C7C083
:1016F000AAE3B0E0EAE3F0E08081482F8A81282F56
:1017000030E081E090E0022E02C0880F991F0A9419
:10171000E2F7809584238C93B2C0A7E3B0E0E7E3BF
:10172000F0E08081482F8A81282F30E081E090E02E
:10173000022E02C0880F991F0A94E2F78095842335
:101740008C939DC0A4E3B0E0E4E3F0E08081482FF7
:101750008A81282F30E081E090E0022E02C0880FBD
:10176000991F0A94E2F7809584238C9388C0A1E3A3
:10177000B0E0E1E3F0E08081482F8A81282F30E05B
:1017800081E090E0022E02C0880F991F0A94E2F7D0
:10179000809584238C9373C08B81813009F06FC056
:1017A0008981282F30E03D832C838C819D8182307C
:1017B000910551F12C813D812330310534F48C8128
:1017C0009D818130910561F05AC02C813D8123308B
:1017D000310571F18C819D8184309105E9F14FC013
:1017E000AAE3B0E0EAE3F0E08081482F8A81282F65
:1017F00030E081E090E0022E02C0880F991F0A9429
:10180000E2F7842B8C933BC0A7E3B0E0E7E3F0E082
:101810008081482F8A81282F30E081E090E0022EDD
:1018200002C0880F991F0A94E2F7842B8C9327C07B
:10183000A4E3B0E0E4E3F0E08081482F8A81282F20
:1018400030E081E090E0022E02C0880F991F0A94D8
:10185000E2F7842B8C9313C0A1E3B0E0E1E3F0E066
:101860008081482F8A81282F30E081E090E0022E8D
:1018700002C0880F991F0A94E2F7842B8C93279655
:101880000FB6F894DEBF0FBECDBFCF91DF910895A4
:10189000DF93CF93CDB7DEB727970FB6F894DEBFAF
:1018A0000FBECDBF89836A834B838981853008F061
:1018B000F4C08981882309F4F0C08A81883008F057
:1018C000ECC08B81813009F070C08981282F30E015
:1018D0003F832E838E819F818230910551F12E812D
:1018E0003F812330310534F48E819F818130910511
:1018F00061F0D3C02E813F812330310571F18E819B
:101900009F8184309105E9F1C8C0ABE3B0E0EBE31F
:10191000F0E08081482F8A81282F30E081E090E03C
:10192000022E02C0880F991F0A94E2F7842B8C9331
:10193000B4C0A8E3B0E0E8E3F0E08081482F8A81FA
:10194000282F30E081E090E0022E02C0880F991F1E
:101950000A94E2F7842B8C93A0C0A5E3B0E0E5E302
:10196000F0E08081482F8A81282F30E081E090E0EC
:10197000022E02C0880F991F0A94E2F7842B8C93E1
:101980008CC0A2E3B0E0E2E3F0E08081482F8A81DE
:10199000282F30E081E090E0022E02C0880F991FCE
:1019A0000A94E2F7842B8C9378C08B81882309F00A
:1019B00074C08981282F30E03D832C838C819D81E8
:1019C0008230910561F12C813D812330310534F461
:1019D0008C819D818130910569F05FC02C813D81B2
:1019E0002330310589F18C819D818430910509F482
:1019F00040C053C0ABE3B0E0EBE3F0E08081482FA0
:101A00008A81282F30E081E090E0022E02C0880F0A
:101A1000991F0A94E2F7809584238C933EC0A8E333
:101A2000B0E0E8E3F0E08081482F8A81282F30E0A1
:101A300081E090E0022E02C0880F991F0A94E2F71D
:101A4000809584238C9329C0A5E3B0E0E5E3F0E022
:101A50008081482F8A81282F30E081E090E0022E9B
:101A600002C0880F991F0A94E2F7809584238C9313
:101A700014C0A2E3B0E0E2E3F0E08081482F8A8165
:101A8000282F30E081E090E0022E02C0880F991FDD
:101A90000A94E2F7809584238C9327960FB6F894E6
:101AA000DEBF0FBECDBFCF91DF910895DF93CF93FF
:101AB00000D000D000D0CDB7DEB789836A835C83C5
:101AC0004B838981853008F07DC08981882309F4A2
:101AD00079C08A81883008F075C08B819C8100971D
:101AE00009F470C08981282F30E03E832D834D8119
:101AF0005E814230510559F18D819E81833091057F
:101B000034F42D813E812130310569F05BC04D8177
:101B10005E814330510579F18D819E81843091053C
:101B200009F43DC04FC0E9E3F0E08081282F30E0A8
:101B30008A81882F90E0A90102C0559547958A9522
:101B4000E2F7CA018170EB81FC8180833BC0E6E350
:101B5000F0E08081282F30E08A81882F90E0A90171
:101B600002C0559547958A95E2F7CA018170EB81CD
:101B7000FC81808327C0E3E3F0E08081282F30E000
:101B80008A81882F90E0A90102C0559547958A95D2
:101B9000E2F7CA018170EB81FC81808313C0E0E32E
:101BA000F0E08081282F30E08A81882F90E0A90121
:101BB00002C0559547958A95E2F7CA018170EB817D
:101BC000FC81808326960FB6F894DEBF0FBECDBF92
:101BD000CF91DF910895DF93CF9300D000D0CDB7A0
:101BE000DEB789836A8389818530B0F5898188234E
:101BF00099F18981282F30E03C832B838B819C8154
:101C000082309105D9F02B813C812330310534F4A9
:101C10008B819C818130910561F01EC02B813C81BC
:101C20002330310581F08B819C818430910581F0D6
:101C300013C0EAE3F0E08A8180830EC0E7E3F0E0BE
:101C40008A81808309C0E4E3F0E08A81808304C054
:101C5000E1E3F0E08A8180830F900F900F900F9066
:101C6000CF91DF910895DF93CF9300D000D0CDB70F
:101C7000DEB789836A8389818530B0F589818823BD
:101C800099F18981282F30E03C832B838B819C81C3
:101C900082309105D9F02B813C812330310534F419
:101CA0008B819C818130910561F01EC02B813C812C
:101CB0002330310581F08B819C818430910581F046
:101CC00013C0EBE3F0E08A8180830EC0E8E3F0E02C
:101CD0008A81808309C0E5E3F0E08A81808304C0C3
:101CE000E2E3F0E08A8180830F900F900F900F90D5
:101CF000CF91DF910895DF93CF9300D000D00F9262
:101D0000CDB7DEB789837B836A838981853008F00C
:101D100043C08981882309F43FC08A819B81009751
:101D2000D9F18981282F30E03D832C838C819D81DE
:101D300082309105E9F02C813D812330310534F466
:101D40008C819D818130910561F026C02C813D817F
:101D500023303105A1F08C819D8184309105B1F053
:101D60001BC0E9E3F0E08081EA81FB81808314C03D
:101D7000E6E3F0E08081EA81FB8180830DC0E3E34C
:101D8000F0E08081EA81FB81808306C0E0E3F0E03F
:101D90008081EA81FB8180830F900F900F900F90DC
:101DA0000F90CF91DF910895DF93CF9300D00F92E2
:101DB000CDB7DEB789836A834B838B81813059F439
:101DC00089816A8140E00E943A0B89816A8141E001
:101DD0000E94480C0DC08B81882351F489816A814F
:101DE00040E00E943A0B89816A8140E00E94480CE1
:101DF0000F900F900F90CF91DF910895DF93CF93C5
:101E000000D0CDB7DEB789836A8389816A810E9459
:101E1000EB0D8A81982F90958981692F0E94330E4E
:101E20000F900F90CF91DF910895DF93CF9300D063
:101E300000D0CDB7DEB789836A838981853008F009
:101E400077C08981882309F473C08A81883008F0BB
:101E50006FC08981282F30E03C832B838B819C814C
:101E60008230910551F12B813C812330310534F4CE
:101E70008B819C818130910561F05AC02B813C811E
:101E80002330310571F18B819C8184309105E9F11A
:101E90004FC0ABE3B0E0EBE3F0E08081482F8A81F4
:101EA000282F30E081E090E0022E02C0880F991FB9
:101EB0000A94E2F784278C933BC0A8E3B0E0E8E300
:101EC000F0E08081482F8A81282F30E081E090E087
:101ED000022E02C0880F991F0A94E2F784278C9380
:101EE00027C0A5E3B0E0E5E3F0E08081482F8A81D8
:101EF000282F30E081E090E0022E02C0880F991F69
:101F00000A94E2F784278C9313C0A5E3B0E0E5E3DD
:101F1000F0E08081482F8A81282F30E081E090E036
:101F2000022E02C0880F991F0A94E2F784278C932F
:101F30000F900F900F900F90CF91DF910895DF9346
:101F4000CF9300D00F92CDB7DEB7898389818530DA
:101F500008F043C08981882309F43FC08981282F74
:101F600030E03B832A838A819B8182309105F1F0A6
:101F70002A813B812330310534F48A819B81813071
:101F8000910561F02AC02A813B8123303105B1F0EF
:101F90008A819B8184309105C9F01FC0ABE3B0E01A
:101FA000EBE3F0E0808180958C9317C0A8E3B0E06C
:101FB000E8E3F0E0808180958C930FC0A5E3B0E06A
:101FC000E5E3F0E0808180958C9307C0A2E3B0E068
:101FD000E5E3F0E0808180958C930F900F900F9057
:101FE000CF91DF910895DF93CF93CDB7DEB70E94F5
:101FF000441282E060E041E00E943A0B84EF91E1FC
:102000000E94DF0884E392E10E94F108CF91DF9102
:1020100008950F931F93DF93CF93CDB7DEB7E39768
:102020000FB6F894DEBF0FBECDBF1BAA1AAA19AA1D
:1020300010927E0010927D0010927C0010927B0026
:10204000ECE4F0E01182108282E060E040E00E9467
:10205000480C80E090E0A0E0B0E48DA79EA7AFA779
:10206000B8AB6DA57EA58FA598A92BEA3AEA4AE2FE
:1020700050E40E941F02DC01CB0189A79AA7ABA7FD
:10208000BCA769A57AA58BA59CA520E030E040E817
:102090005FE30E94250488231CF481E088A791C097
:1020A00069A57AA58BA59CA520E030E04FE753E415
:1020B0000E94C50318160CF07BC06DA57EA58FA5E8
:1020C00098A920E030E04AE754E40E941903DC01BB
:1020D000CB018CA39DA3AEA3BFA36CA17DA18EA1B8
:1020E0009FA120E030E04AEF54E40E941F02DC018F
:1020F000CB0188A399A3AAA3BBA368A179A18AA1B4
:102100009BA120E030E040E85FE30E9425048823A3
:102110002CF481E090E09F8F8E8F3FC068A179A161
:102120008AA19BA120E03FEF4FE757E40E94C5033F
:1021300018164CF56CA17DA18EA19FA120E030E086
:1021400040E251E40E941F02DC01CB01BC01CD0141
:102150000E944900DC01CB019F8F8E8F0FC088EC5D
:1021600090E09D8F8C8F8C8D9D8D0197F1F79D8FC9
:102170008C8F8E8D9F8D01979F8F8E8F8E8D9F8DD3
:10218000009769F724C068A179A18AA19BA10E9448
:102190004900DC01CB019F8F8E8F8E8D9F8D9B8F91
:1021A0008A8F8A8D9B8D0197F1F79B8F8A8F0FC045
:1021B00069A57AA58BA59CA50E944900DC01CB01ED
:1021C00088A788A5898F898D8A95F1F7898F82E004
:1021D00060E041E00E94480C80E090E0A0E2B1E4C1
:1021E0008D8B9E8BAF8BB88F6D897E898F89988DF3
:1021F0002BEA3AEA4AE250E40E941F02DC01CB01DA
:10220000898B9A8BAB8BBC8B69897A898B899C89EA
:1022100020E030E040E85FE30E94250488231CF4BE
:1022200081E0888B91C069897A898B899C8920E0BB
:1022300030E04FE753E40E94C50318160CF07BC052
:102240006D897E898F89988D20E030E04AE754E4DB
:102250000E941903DC01CB018C879D87AE87BF8765
:102260006C857D858E859F8520E030E04AEF54E4C3
:102270000E941F02DC01CB0188879987AA87BB8750
:10228000688579858A859B8520E030E040E85FE3BA
:102290000E94250488232CF481E090E09F838E83A4
:1022A0003FC0688579858A859B8520E03FEF4FE7B1
:1022B00057E40E94C50318164CF56C857D858E8504
:1022C0009F8520E030E040E251E40E941F02DC01E3
:1022D000CB01BC01CD010E944900DC01CB019F83F1
:1022E0008E830FC088EC90E09D838C838C819D81D0
:1022F0000197F1F79D838C838E819F8101979F8346
:102300008E838E819F81009769F724C068857985C7
:102310008A859B850E944900DC01CB019F838E83C7
:102320008E819F819B838A838A819B810197F1F7AC
:102330009B838A830FC069897A898B899C890E94D3
:102340004900DC01CB01888B8889898389818A9542
:10235000F1F7898382E060E040E00E94480C81E070
:102360000E9403090E94220980917B0090917C00C9
:1023700082309105C8F32091790030917A008091E4
:102380007700909178008901081B190B80917D00DE
:1023900090917E00CC01A0E0B0E02FEF3FEF40E055
:1023A00050E0BC01CD010E94A422DC01CB01800FD2
:1023B000911F9AAB89AB89A99AA92AE330E0B901A8
:1023C0000E94C322CB018BAB0E9430098BA9882FBE
:1023D00090E0E3960FB6F894DEBF0FBECDBFCF916D
:1023E000DF911F910F910895DF93CF93CDB7DEB7A3
:1023F00080917B0090917C000097B1F410927E0058
:1024000010927D00E6E4F0E0808191819093780065
:102410008093770081E090E090937C0080937B0034
:1024200080E00E9403091DC080917B0090917C0098
:1024300081309105B1F4E6E4F0E0808191819093E0
:102440007A008093790082E090E090937C00809302
:102450007B0081E00E9403090E94300980E00E9415
:102460007308CF91DF910895DF93CF93CDB7DEB797
:1024700080917D0090917E00019690937E008093E4
:102480007D00CF91DF910895DF93CF93CDB7DEB775
:1024900084E064E041E00E943A0B84E062E041E0C5
:1024A0000E944F0682E00E943508EAE4F0E08FE1E6
:1024B0009EE491838083CF91DF910895DF93CF9342
:1024C00000D00F92CDB7DEB78B838B81882F90E041
:1024D000A0E0B0E028EE33E040E050E0BC01CD01E8
:1024E0000E94A422DC01CB0124EB30E040E050E06C
:1024F000BC01CD010E94D722DA01C90189519C4F4C
:102500009A838983E8E4F0E089819A8191838083CA
:102510000F900F900F90CF91DF910895DF93CF939D
:10252000CDB7DEB781E060E041E00E943A0B81E088
:1025300061E041E00E943A0B81E062E041E00E94EC
:102540003A0B81E063E041E00E943A0BCF91DF91CA
:102550000895DF93CF93CDB7DEB781E060E041E02F
:102560000E94480C81E061E040E00E94480C81E05C
:1025700062E041E00E94480C81E063E040E00E949C
:10258000480CCF91DF910895DF93CF93CDB7DEB79D
:1025900081E060E040E00E94480C81E061E041E0C1
:1025A0000E94480C81E062E040E00E94480C81E01B
:1025B00063E041E00E94480CCF91DF910895DF93E2
:1025C000CF93CDB7DEB781E060E040E00E94480CD9
:1025D00081E061E040E00E94480C81E062E041E07F
:1025E0000E94480C81E063E040E00E94480CCF91DB
:1025F000DF910895DF93CF93CDB7DEB781E060E040
:1026000041E00E94480C81E061E040E00E94480CFB
:1026100081E062E040E00E94480C81E063E040E03D
:102620000E94480CCF91DF910895DF93CF93CDB7EF
:10263000DEB781E060E040E00E94480C81E061E0AC
:1026400041E00E94480C81E062E040E00E94480CBA
:1026500081E063E040E00E94480CCF91DF91089553
:10266000DF93CF93CDB7DEB781E060E040E00E941A
:10267000480C81E061E040E00E94480C81E062E0AB
:1026800040E00E94480C81E063E041E00E94480C79
:10269000CF91DF910895DF93CF93CDB7DEB781E07F
:1026A00060E040E00E94480C81E061E040E00E9470
:1026B000480C81E062E040E00E94480C81E063E069
:1026C00040E00E94480CCF91DF910895DF93CF93B3
:1026D000CDB7DEB783E060E040E00E943A0B83E0D4
:1026E00061E040E00E943A0BCF91DF910895DF93C3
:1026F000CF930F92CDB7DEB781E089838981882F90
:1027000090E0009741F083E060E09E012F5F3F4F33
:10271000A9010E94560D89810F90CF91DF910895F4
:10272000DF93CF930F92CDB7DEB781E089838981A4
:10273000882F90E0009741F083E061E09E012F5FD9
:102740003F4FA9010E94560D89810F90CF91DF91D3
:1027500008950F931F93DF93CF93CDB7DEB7C45384
:10276000D1400FB6F894DEBF0FBECDBF0E94480A1D
:102770000E9466130E948E120E94F30F0E94901313
:10278000882311F00C940F220E947713882311F0F4
:102790000C940F220E940910809381008091810087
:1027A0008F3120F00E94A9120C942F228091810079
:1027B0008E3110F00C942F220E944B13FE01EF5C1F
:1027C000FE4F80E090E0AAEFB4E480839183A2837F
:1027D000B3838E01035D1E4FFE01EF5CFE4F6081EF
:1027E00071818281938120E030E04AEF54E40E94BD
:1027F0001F02DC01CB01F80180839183A283B383A4
:10280000FE01E35DFE4F608171818281938120E052
:1028100030E040E85FE30E942504882344F4FE0191
:10282000E55DFE4F81E090E09183808364C0FE010E
:10283000E35DFE4F608171818281938120E03FEFF3
:102840004FE757E40E94C50318160CF043C0FE0181
:10285000EF5CFE4F608171818281938120E030E0E6
:1028600040E251E40E941F02DC01CB018E01055DB4
:102870001E4FBC01CD010E944900DC01CB01F801D3
:10288000918380831FC0FE01E75DFE4F88EC90E0DE
:1028900091838083FE01E75DFE4F808191810197E6
:1028A000F1F7FE01E75DFE4F91838083DE01A55DB8
:1028B000BE4FFE01E55DFE4F80819181019711962B
:1028C0009C938E93FE01E55DFE4F80819181009780
:1028D000D1F627C08E01055D1E4FFE01E35DFE4F60
:1028E00060817181828193810E944900DC01CB016A
:1028F000F80191838083DE01A95DBE4FFE01E55D95
:10290000FE4F808191818D939C93FE01E95DFE4F86
:10291000808191810197F1F7FE01E95DFE4F91837E
:1029200080830E94091080938100809181008F3103
:1029300020F00E94A9120C942F2280E00E945E12C7
:10294000FE01ED5DFE4F80E090E0A6E9B3E48083F8
:102950009183A283B3838E01015E1E4FFE01ED5D64
:10296000FE4F608171818281938120E030E04AEFE7
:1029700054E40E941F02DC01CB01F80180839183A3
:10298000A283B383FE01E15EFE4F6081718182818B
:10299000938120E030E040E85FE30E942504882333
:1029A00044F4FE01E35EFE4F81E090E0918380837A
:1029B00064C0FE01E15EFE4F60817181828193817E
:1029C00020E03FEF4FE757E40E94C50318160CF0D4
:1029D00043C0FE01ED5DFE4F608171818281938174
:1029E00020E030E040E251E40E941F02DC01CB0114
:1029F0008E01035E1E4FBC01CD010E944900DC0127
:102A0000CB01F801918380831FC0FE01E55EFE4F7C
:102A100088EC90E091838083FE01E55EFE4F80812B
:102A200091810197F1F7FE01E55EFE4F918380836E
:102A3000DE01A35EBE4FFE01E35EFE4F8081918109
:102A4000019711969C938E93FE01E35EFE4F808169
:102A500091810097D1F627C08E01035E1E4FFE01C3
:102A6000E15EFE4F60817181828193810E94490005
:102A7000DC01CB01F80191838083DE01A75EBE4FAC
:102A8000FE01E35EFE4F808191818D939C93FE0158
:102A9000E75EFE4F808191810197F1F7FE01E75ECD
:102AA000FE4F918380830E94091080937F00FE0176
:102AB000EB5EFE4F80E090E0A6E9B3E48083918373
:102AC000A283B3838E010F5E1E4FFE01EB5EFE4FAD
:102AD000608171818281938120E030E04AEF54E48B
:102AE0000E941F02DC01CB01F80180839183A28345
:102AF000B383FE01EF5EFE4F60817181828193811D
:102B000020E030E040E85FE30E942504882344F49D
:102B1000FE01E15FFE4F81E090E09183808364C01D
:102B2000FE01EF5EFE4F608171818281938120E022
:102B30003FEF4FE757E40E94C50318160CF043C05F
:102B4000FE01EB5EFE4F608171818281938120E006
:102B500030E040E251E40E941F02DC01CB018E0113
:102B6000015F1E4FBC01CD010E944900DC01CB0179
:102B7000F801918380831FC0FE01E35FFE4F88EC64
:102B800090E091838083FE01E35FFE4F808191811D
:102B90000197F1F7FE01E35FFE4F91838083DE0131
:102BA000A15FBE4FFE01E15FFE4F808191810197E1
:102BB00011969C938E93FE01E15FFE4F808191817F
:102BC0000097D1F627C08E01015F1E4FFE01EF5E18
:102BD000FE4F60817181828193810E944900DC01F6
:102BE000CB01F80191838083DE01A55FBE4FFE011A
:102BF000E15FFE4F808191818D939C93FE01E55FA3
:102C0000FE4F808191810197F1F7FE01E55FFE4F54
:102C10009183808384EB0E945E12FE01E95FFE4F88
:102C200080E090E0A6E9B3E480839183A283B3833C
:102C30008E010D5F1E4FFE01E95FFE4F60817181C5
:102C40008281938120E030E04AEF54E40E941F0229
:102C5000DC01CB01F80180839183A283B383FE0161
:102C6000ED5FFE4F608171818281938120E030E0D1
:102C700040E85FE30E942504882344F4FE01EF5FEF
:102C8000FE4F81E090E09183808364C0FE01ED5FA0
:102C9000FE4F608171818281938120E03FEF4FE799
:102CA00057E40E94C50318160CF043C0FE01E95F0B
:102CB000FE4F608171818281938120E030E040E2AB
:102CC00051E40E941F02DC01CB018E010F5F1E4FF9
:102CD000BC01CD010E944900DC01CB01F8019183C8
:102CE00080831FC0FE01E150FF4F88EC90E091838C
:102CF0008083FE01E150FF4F808191810197F1F7C0
:102D0000FE01E150FF4F91838083DE01AF5FBE4F34
:102D1000FE01EF5FFE4F80819181019711969C9398
:102D20008E93FE01EF5FFE4F808191810097D1F677
:102D300027C08E010F5F1E4FFE01ED5FFE4F6081C9
:102D40007181828193810E944900DC01CB01F801ED
:102D500091838083DE01A350BF4FFE01EF5FFE4FE2
:102D6000808191818D939C93FE01E350FF4F808180
:102D700091810197F1F7FE01E350FF4F918380832A
:102D80000E94091080938000FE01E750FF4F80E011
:102D900090E0A6E9B3E480839183A283B3838E019C
:102DA0000B501F4FFE01E750FF4F60817181828100
:102DB000938120E030E04AEF54E40E941F02DC01DE
:102DC000CB01F80180839183A283B383FE01EB5092
:102DD000FF4F608171818281938120E030E040E883
:102DE0005FE30E942504882344F4FE01ED50FF4F69
:102DF00081E090E09183808364C0FE01EB50FF4F3F
:102E0000608171818281938120E03FEF4FE757E439
:102E10000E94C50318160CF043C0FE01E750FF4F97
:102E2000608171818281938120E030E040E251E451
:102E30000E941F02DC01CB018E010D501F4FBC010F
:102E4000CD010E944900DC01CB01F8019183808310
:102E50001FC0FE01EF50FF4F88EC90E0918380830C
:102E6000FE01EF50FF4F808191810197F1F7FE0144
:102E7000EF50FF4F91838083DE01AD50BF4FFE01C5
:102E8000ED50FF4F80819181019711969C938E9315
:102E9000FE01ED50FF4F808191810097D1F627C050
:102EA0008E010D501F4FFE01EB50FF4F608171816D
:102EB000828193810E944900DC01CB01F80191835A
:102EC0008083DE01A151BF4FFE01ED50FF4F808195
:102ED00091818D939C93FE01E151FF4F80819181FF
:102EE0000197F1F7FE01E151FF4F918380838AE55D
:102EF0000E945E1290917F0080918000891708F0F7
:102F000090C380917F008F3108F48BC30E94DF1241
:102F1000FE01E551FF4F80E090E0AAEFB3E480832B
:102F20009183A283B3838E0109511F4FFE01E551A6
:102F3000FF4F608171818281938120E030E04AEF10
:102F400054E40E941F02DC01CB01F80180839183CD
:102F5000A283B383FE01E951FF4F608171818281B9
:102F6000938120E030E040E85FE30E94250488235D
:102F700044F4FE01EB51FF4F81E090E091838083A8
:102F800064C0FE01E951FF4F6081718182819381AC
:102F900020E03FEF4FE757E40E94C50318160CF0FE
:102FA00043C0FE01E551FF4F6081718182819381B1
:102FB00020E030E040E251E40E941F02DC01CB013E
:102FC0008E010B511F4FBC01CD010E944900DC0155
:102FD000CB01F801918380831FC0FE01ED51FF4FAB
:102FE00088EC90E091838083FE01ED51FF4F80815A
:102FF00091810197F1F7FE01ED51FF4F918380839D
:10300000DE01AB51BF4FFE01EB51FF4F808191813B
:10301000019711969C938E93FE01EB51FF4F808197
:1030200091810097D1F627C08E010B511F4FFE01F1
:10303000E951FF4F60817181828193810E94490033
:10304000DC01CB01F80191838083DE01AF51BF4FDA
:10305000FE01EB51FF4F808191818D939C93FE0186
:10306000EF51FF4F808191810197F1F7FE01EF5100
:10307000FF4F918380830E94A912FE01E352FF4F0C
:1030800080E090E0A6E1B4E480839183A283B383DF
:103090008E0107521F4FFE01E352FF4F6081718185
:1030A0008281938120E030E04AEF54E40E941F02C5
:1030B000DC01CB01F80180839183A283B383FE01FD
:1030C000E752FF4F608171818281938120E030E07F
:1030D00040E85FE30E942504882344F4FE01E9529E
:1030E000FF4F81E090E09183808364C0FE01E7524E
:1030F000FF4F608171818281938120E03FEF4FE734
:1031000057E40E94C50318160CF043C0FE01E352B9
:10311000FF4F608171818281938120E030E040E245
:1031200051E40E941F02DC01CB018E0109521F4FA6
:10313000BC01CD010E944900DC01CB01F801918363
:1031400080831FC0FE01EB52FF4F88EC90E091831B
:103150008083FE01EB52FF4F808191810197F1F74F
:10316000FE01EB52FF4F91838083DE01A952BF4FD6
:10317000FE01E952FF4F80819181019711969C9346
:103180008E93FE01E952FF4F808191810097D1F625
:1031900027C08E0109521F4FFE01E752FF4F608189
:1031A0007181828193810E944900DC01CB01F80189
:1031B00091838083DE01AD52BF4FFE01E952FF4F84
:1031C000808191818D939C93FE01ED52FF4F808110
:1031D00091810197F1F7FE01ED52FF4F91838083BA
:1031E0000E94FA12FE01E153FF4F80E090E0AAEF47
:1031F000B3E480839183A283B3838E0105531F4F71
:10320000FE01E153FF4F608171818281938120E053
:1032100030E04AEF54E40E941F02DC01CB01F801C8
:1032200080839183A283B383FE01E553FF4F6081C6
:1032300071818281938120E030E040E85FE30E9469
:103240002504882344F4FE01E753FF4F81E090E01A
:103250009183808364C0FE01E553FF4F60817181DB
:103260008281938120E03FEF4FE757E40E94C5033E
:1032700018160CF043C0FE01E153FF4F60817181CD
:103280008281938120E030E040E251E40E941F02FD
:10329000DC01CB018E0107531F4FBC01CD010E9401
:1032A0004900DC01CB01F801918380831FC0FE013E
:1032B000E953FF4F88EC90E091838083FE01E9534E
:1032C000FF4F808191810197F1F7FE01E953FF4F94
:1032D00091838083DE01A753BF4FFE01E753FF4F69
:1032E00080819181019711969C938E93FE01E75303
:1032F000FF4F808191810097D1F627C08E0107533F
:103300001F4FFE01E553FF4F6081718182819381E0
:103310000E944900DC01CB01F80191838083DE012A
:10332000AB53BF4FFE01E753FF4F808191818D93D7
:103330009C93FE01EB53FF4F808191810197F1F740
:10334000FE01EB53FF4F918380830E94A912FE017F
:10335000EF53FF4F80E090E0A6E1B4E480839183D7
:10336000A283B3838E0103541F4FFE01EF53FF4F1F
:10337000608171818281938120E030E04AEF54E4E2
:103380000E941F02DC01CB01F80180839183A2839C
:10339000B383FE01E354FF4F608171818281938189
:1033A00020E030E040E85FE30E942504882344F4F5
:1033B000FE01E554FF4F81E090E09183808364C07B
:1033C000FE01E354FF4F608171818281938120E08F
:1033D0003FEF4FE757E40E94C50318160CF043C0B7
:1033E000FE01EF53FF4F608171818281938120E064
:1033F00030E040E251E40E941F02DC01CB018E016B
:1034000005541F4FBC01CD010E944900DC01CB01D6
:10341000F801918380831FC0FE01E754FF4F88ECC1
:1034200090E091838083FE01E754FF4F808191817A
:103430000197F1F7FE01E754FF4F91838083DE018E
:10344000A554BF4FFE01E554FF4F80819181019744
:1034500011969C938E93FE01E554FF4F80819181DC
:103460000097D1F627C08E0105541F4FFE01E3548B
:10347000FF4F60817181828193810E944900DC014C
:10348000CB01F80191838083DE01A954BF4FFE0177
:10349000E554FF4F808191818D939C93FE01E95407
:1034A000FF4F808191810197F1F7FE01E954FF4FB1
:1034B000918380830E94FA12FE01ED54FF4F80E059
:1034C00090E0A8ECB3E480839183A283B3838E0160
:1034D00001551F4FFE01ED54FF4F608171818281C4
:1034E000938120E030E04AEF54E40E941F02DC01A7
:1034F000CB01F80180839183A283B383FE01E15560
:10350000FF4F608171818281938120E030E040E84B
:103510005FE30E942504882344F4FE01E355FF4F36
:1035200081E090E09183808364C0FE01E155FF4F0C
:10353000608171818281938120E03FEF4FE757E402
:103540000E94C50318160CF043C0FE01ED54FF4F56
:10355000608171818281938120E030E040E251E41A
:103560000E941F02DC01CB018E0103551F4FBC01DD
:10357000CD010E944900DC01CB01F80191838083D9
:103580001FC0FE01E555FF4F88EC90E091838083DA
:10359000FE01E555FF4F808191810197F1F7FE0112
:1035A000E555FF4F91838083DE01A355BF4FFE0198
:1035B000E355FF4F80819181019711969C938E93E3
:1035C000FE01E355FF4F808191810097D1F647C7F7
:1035D0008E0103551F4FFE01E155FF4F6081718140
:1035E000828193810E944900DC01CB01F801918323
:1035F0008083DE01A755BF4FFE01E355FF4F808159
:10360000918111969C938E93FE01E755FF4F808127
:1036100091810197F1F7FE01E755FF4F9183808378
:103620001EC790917F0080918000981708F090C38A
:10363000809180008F3108F48BC30E94FA12FE0142
:10364000EB55FF4F80E090E0AAEFB3E480839183D5
:10365000A283B3838E010F551F4FFE01EB55FF4F21
:10366000608171818281938120E030E04AEF54E4EF
:103670000E941F02DC01CB01F80180839183A283A9
:10368000B383FE01EF55FF4F608171818281938189
:1036900020E030E040E85FE30E942504882344F402
:1036A000FE01E156FF4F81E090E09183808364C08A
:1036B000FE01EF55FF4F608171818281938120E08F
:1036C0003FEF4FE757E40E94C50318160CF043C0C4
:1036D000FE01EB55FF4F608171818281938120E073
:1036E00030E040E251E40E941F02DC01CB018E0178
:1036F00001561F4FBC01CD010E944900DC01CB01E6
:10370000F801918380831FC0FE01E356FF4F88ECD0
:1037100090E091838083FE01E356FF4F8081918189
:103720000197F1F7FE01E356FF4F91838083DE019D
:10373000A156BF4FFE01E156FF4F80819181019755
:1037400011969C938E93FE01E156FF4F80819181EB
:103750000097D1F627C08E0101561F4FFE01EF558D
:10376000FF4F60817181828193810E944900DC0159
:10377000CB01F80191838083DE01A556BF4FFE0186
:10378000E156FF4F808191818D939C93FE01E55618
:10379000FF4F808191810197F1F7FE01E556FF4FC0
:1037A000918380830E94A912FE01E956FF4F80E0B9
:1037B00090E0A6E1B4E480839183A283B3838E0179
:1037C0000D561F4FFE01E956FF4F608171818281C6
:1037D000938120E030E04AEF54E40E941F02DC01B4
:1037E000CB01F80180839183A283B383FE01ED5660
:1037F000FF4F608171818281938120E030E040E859
:103800005FE30E942504882344F4FE01EF56FF4F36
:1038100081E090E09183808364C0FE01ED56FF4F0C
:10382000608171818281938120E03FEF4FE757E40F
:103830000E94C50318160CF043C0FE01E956FF4F65
:10384000608171818281938120E030E040E251E427
:103850000E941F02DC01CB018E010F561F4FBC01DD
:10386000CD010E944900DC01CB01F80191838083E6
:103870001FC0FE01E157FF4F88EC90E091838083E9
:10388000FE01E157FF4F808191810197F1F7FE0121
:10389000E157FF4F91838083DE01AF56BF4FFE019A
:1038A000EF56FF4F80819181019711969C938E93E3
:1038B000FE01EF56FF4F808191810097D1F627C01E
:1038C0008E010F561F4FFE01ED56FF4F6081718133
:1038D000828193810E944900DC01CB01F801918330
:1038E0008083DE01A357BF4FFE01EF56FF4F80815B
:1038F00091818D939C93FE01E357FF4F80819181CD
:103900000197F1F7FE01E357FF4F918380830E94F7
:10391000DF12FE01E757FF4F80E090E0AAEFB3E42B
:1039200080839183A283B3838E010B571F4FFE01C7
:10393000E757FF4F608171818281938120E030E001
:103940004AEF54E40E941F02DC01CB01F80180839E
:103950009183A283B383FE01EB57FF4F6081718196
:103960008281938120E030E040E85FE30E942504FB
:10397000882344F4FE01ED57FF4F81E090E09183EE
:10398000808364C0FE01EB57FF4F608171818281AB
:10399000938120E03FEF4FE757E40E94C5031816DC
:1039A0000CF043C0FE01E757FF4F608171818281B7
:1039B000938120E030E040E251E40E941F02DC01EC
:1039C000CB018E010D571F4FBC01CD010E94490054
:1039D000DC01CB01F801918380831FC0FE01EF570A
:1039E000FF4F88EC90E091838083FE01EF57FF4FFB
:1039F000808191810197F1F7FE01EF57FF4F91838D
:103A00008083DE01AD57BF4FFE01ED57FF4F808130
:103A10009181019711969C938E93FE01ED57FF4F74
:103A2000808191810097D1F627C08E010D571F4FDD
:103A3000FE01EB57FF4F60817181828193810E946B
:103A40004900DC01CB01F80191838083DE01A1589C
:103A5000BF4FFE01ED57FF4F808191818D939C9365
:103A6000FE01E158FF4F808191810197F1F7FE013E
:103A7000E158FF4F918380830E94A912FE01E5580F
:103A8000FF4F80E090E0A6E1B4E480839183A283BD
:103A9000B3838E0109581F4FFE01E558FF4F608127
:103AA00071818281938120E030E04AEF54E40E94EA
:103AB0001F02DC01CB01F80180839183A283B383D1
:103AC000FE01E958FF4F608171818281938120E07E
:103AD00030E040E85FE30E942504882344F4FE01BF
:103AE000EB58FF4F81E090E09183808364C0FE013A
:103AF000E958FF4F608171818281938120E03FEF1F
:103B00004FE757E40E94C50318160CF043C0FE01AE
:103B1000E558FF4F608171818281938120E030E020
:103B200040E251E40E941F02DC01CB018E010B58E0
:103B30001F4FBC01CD010E944900DC01CB01F801FF
:103B4000918380831FC0FE01ED58FF4F88EC90E009
:103B500091838083FE01ED58FF4F80819181019711
:103B6000F1F7FE01ED58FF4F91838083DE01AB58E2
:103B7000BF4FFE01EB58FF4F808191810197119655
:103B80009C938E93FE01EB58FF4F808191810097AB
:103B9000D1F627C08E010B581F4FFE01E958FF4F89
:103BA00060817181828193810E944900DC01CB0197
:103BB000F80191838083DE01AF58BF4FFE01EB58BF
:103BC000FF4F808191818D939C93FE01EF58FF4FB1
:103BD000808191810197F1F7FE01EF58FF4F9183AA
:103BE00080830E94DF12FE01E359FF4F80E090E0E6
:103BF000A8ECB3E480839183A283B3838E01075939
:103C00001F4FFE01E359FF4F6081718182819381D3
:103C100020E030E04AEF54E40E941F02DC01CB01B7
:103C2000F80180839183A283B383FE01E759FF4F9C
:103C3000608171818281938120E030E040E85FE320
:103C40000E942504882344F4FE01E959FF4F81E0D6
:103C500090E09183808364C0FE01E759FF4F60814B
:103C600071818281938120E03FEF4FE757E40E940A
:103C7000C50318160CF043C0FE01E359FF4F6081E5
:103C800071818281938120E030E040E251E40E9422
:103C90001F02DC01CB018E0109591F4FBC01CD0170
:103CA0000E944900DC01CB01F801918380831FC091
:103CB000FE01EB59FF4F88EC90E091838083FE0179
:103CC000EB59FF4F808191810197F1F7FE01EB598C
:103CD000FF4F91838083DE01A959BF4FFE01E9594F
:103CE000FF4F80819181019711969C938E93FE01E5
:103CF000E959FF4F808191810097D1F6B0C38E01C1
:103D000009591F4FFE01E759FF4F60817181828180
:103D100093810E944900DC01CB01F80191838083EB
:103D2000DE01AD59BF4FFE01E959FF4F80819181FE
:103D300011969C938E93FE01ED59FF4F80819181E6
:103D40000197F1F7FE01ED59FF4F9183808387C3FF
:103D500090917F0080918000981709F0DFC28091D8
:103D600080008F3108F4DAC20E94DF12FE01E15AAE
:103D7000FF4F80E090E0AAEFB3E480839183A283B9
:103D8000B3838E01055A1F4FFE01E15AFF4F608138
:103D900071818281938120E030E04AEF54E40E94F7
:103DA0001F02DC01CB01F80180839183A283B383DE
:103DB000FE01E55AFF4F608171818281938120E08D
:103DC00030E040E85FE30E942504882344F4FE01CC
:103DD000E75AFF4F81E090E09183808364C0FE0149
:103DE000E55AFF4F608171818281938120E03FEF2E
:103DF0004FE757E40E94C50318160CF043C0FE01BC
:103E0000E15AFF4F608171818281938120E030E02F
:103E100040E251E40E941F02DC01CB018E01075AEF
:103E20001F4FBC01CD010E944900DC01CB01F8010C
:103E3000918380831FC0FE01E95AFF4F88EC90E018
:103E400091838083FE01E95AFF4F80819181019720
:103E5000F1F7FE01E95AFF4F91838083DE01A75AF3
:103E6000BF4FFE01E75AFF4F808191810197119664
:103E70009C938E93FE01E75AFF4F808191810097BA
:103E8000D1F627C08E01075A1F4FFE01E55AFF4F9A
:103E900060817181828193810E944900DC01CB01A4
:103EA000F80191838083DE01AB5ABF4FFE01E75AD0
:103EB000FF4F808191818D939C93FE01EB5AFF4FC0
:103EC000808191810197F1F7FE01EB5AFF4F9183B9
:103ED00080830E94A912FE01EF5AFF4F80E090E01C
:103EE000A6E1B4E480839183A283B3838E01035B54
:103EF0001F4FFE01EF5AFF4F6081718182819381D4
:103F000020E030E04AEF54E40E941F02DC01CB01C4
:103F1000F80180839183A283B383FE01E35BFF4FAB
:103F2000608171818281938120E030E040E85FE32D
:103F30000E942504882344F4FE01E55BFF4F81E0E5
:103F400090E09183808364C0FE01E35BFF4F60815A
:103F500071818281938120E03FEF4FE757E40E9417
:103F6000C50318160CF043C0FE01EF5AFF4F6081E5
:103F700071818281938120E030E040E251E40E942F
:103F80001F02DC01CB018E01055B1F4FBC01CD017F
:103F90000E944900DC01CB01F801918380831FC09E
:103FA000FE01E75BFF4F88EC90E091838083FE0188
:103FB000E75BFF4F808191810197F1F7FE01E75B9D
:103FC000FF4F91838083DE01A55BBF4FFE01E55B60
:103FD000FF4F80819181019711969C938E93FE01F2
:103FE000E55BFF4F808191810097D1F627C08E015C
:103FF000055B1F4FFE01E35BFF4F60817181828192
:1040000093810E944900DC01CB01F80191838083F8
:10401000DE01A95BBF4FFE01E55BFF4F808191810F
:104020008D939C93FE01E95BFF4F80819181019705
:10403000F1F7FE01E95BFF4F918380830E94FA1242
:10404000FE01ED5BFF4F80E090E0AAEFB3E48083D8
:104050009183A283B3838E01015C1F4FFE01ED5B50
:10406000FF4F608171818281938120E030E04AEFCF
:1040700054E40E941F02DC01CB01F801808391838C
:10408000A283B383FE01FF96608171818281938157
:1040900020E030E040E85FE30E94250488232CF410
:1040A00081E090E09EAF8DAF46C0FE01FF9660813B
:1040B00071818281938120E03FEF4FE757E40E94B6
:1040C000C503181664F5FE01ED5BFF4F6081718139
:1040D0008281938120E030E040E251E40E941F029F
:1040E000DC01CB01BC01CD010E944900DC01CB0108
:1040F0009EAF8DAF0FC088EC90E09CAF8BAF8BADC7
:104100009CAD0197F1F79CAF8BAF8DAD9EAD019744
:104110009EAF8DAF8DAD9EAD009769F716C0FE01C5
:10412000FF9660817181828193810E944900DC0148
:10413000CB019EAF8DAF8DAD9EAD9AAF89AF89ADEE
:104140009AAD0197F1F79AAF89AF0E94A91280E06A
:1041500090E0A6E1B4E48DAB9EABAFABB8AF6DA978
:104160007EA98FA998AD20E030E04AEF54E40E9488
:104170001F02DC01CB0189AB9AABABABBCAB69A92D
:104180007AA98BA99CA920E030E040E85FE30E9477
:10419000250488232CF481E090E098AB8FA73FC0E2
:1041A00069A97AA98BA99CA920E03FEF4FE757E4C2
:1041B0000E94C50318164CF56DA97EA98FA998AD6C
:1041C00020E030E040E251E40E941F02DC01CB011C
:1041D000BC01CD010E944900DC01CB0198AB8FA747
:1041E0000FC088EC90E09EA78DA78DA59EA5019796
:1041F000F1F79EA78DA78FA598A9019798AB8FA7D8
:104200008FA598A9009769F714C069A97AA98BA905
:104210009CA90E944900DC01CB0198AB8FA78FA518
:1042200098A99CA78BA78BA59CA50197F1F79CA7A4
:104230008BA70E94FA1280E090E0A8ECB3E48FA371
:1042400098A7A9A7BAA76FA178A589A59AA520E0E4
:1042500030E04AEF54E40E941F02DC01CB018BA343
:104260009CA3ADA3BEA36BA17CA18DA19EA120E0C8
:1042700030E040E85FE30E94250488232CF481E0CD
:1042800090E09AA389A33FC06BA17CA18DA19EA1C0
:1042900020E03FEF4FE757E40E94C50318164CF5A6
:1042A0006FA178A589A59AA520E030E040E251E40D
:1042B0000E941F02DC01CB01BC01CD010E9449001C
:1042C000DC01CB019AA389A30FC088EC90E098A3EE
:1042D0008F8F8F8D98A10197F1F798A38F8F89A168
:1042E0009AA101979AA389A389A19AA1009769F736
:1042F000B6C06BA17CA18DA19EA10E944900DC01EA
:10430000CB019AA389A389A19AA19E8F8D8F8D8DB0
:104310009E8D0197F1F79E8F8D8FA1C090917F00A8
:1043200080918000981709F09AC0809180008E31AA
:1043300008F095C00E944B1380E090E0AAEFB3E430
:10434000898F9A8FAB8FBC8F698D7A8D8B8D9C8D69
:1043500020E030E04AEF54E40E941F02DC01CB0170
:104360008D8B9E8BAF8BB88F6D897E898F89988D51
:1043700020E030E040E85FE30E94250488232CF42D
:1043800081E090E09C8B8B8B3FC06D897E898F890B
:10439000988D20E03FEF4FE757E40E94C5031816C1
:1043A0004CF5698D7A8D8B8D9C8D20E030E040E25C
:1043B00051E40E941F02DC01CB01BC01CD010E942F
:1043C0004900DC01CB019C8B8B8B0FC088EC90E00B
:1043D0009A8B898B89899A890197F1F79A8B898BB6
:1043E0008B899C8901979C8B8B8B8B899C890097EF
:1043F00069F735C06D897E898F89988D0E94490043
:10440000DC01CB019C8B8B8B8B899C89988B8F8754
:104410008F8598890197F1F7988B8F8720C00E942C
:104420009013813039F40E947713882319F40E9485
:10443000FA1215C00E949013882339F40E94771352
:10444000813019F40E94DF120AC00E94901381305B
:1044500031F40E947713813011F40E944B1380E0F5
:1044600090E0A0E2B1E48B879C87AD87BE876B8527
:104470007C858D859E8520E030E04AEF54E40E94E3
:104480001F02DC01CB018F839887A987BA876F81D0
:10449000788589859A8520E030E040E85FE30E94D6
:1044A000250488232CF481E090E09E838D8340C016
:1044B0006F81788589859A8520E03FEF4FE757E443
:1044C0000E94C503181654F56B857C858D859E85E5
:1044D00020E030E040E251E40E941F02DC01CB0109
:1044E000BC01CD010E944900DC01CB019E838D837C
:1044F0000FC088EC90E09C838B838B819C8101971B
:10450000F1F79C838B838D819E8101979E838D83A0
:104510008D819E81009769F70C94BE136F81788519
:1045200089859A850E944900DC01CB019E838D8399
:104530008D819E819A83898389819A810197F1F780
:104540009A8389830C94BE13629FD001739FF001FC
:10455000829FE00DF11D649FE00DF11D929FF00D13
:10456000839FF00D749FF00D659FF00D9927729F4A
:10457000B00DE11DF91F639FB00DE11DF91FBD01D5
:10458000CF0111240895AA1BBB1B51E107C0AA1F2C
:10459000BB1FA617B70710F0A61BB70B881F991FE4
:1045A0005A95A9F780959095BC01CD010895A1E297
:1045B0001A2EAA1BBB1BFD010DC0AA1FBB1FEE1F9D
:1045C000FF1FA217B307E407F50720F0A21BB30BE8
:1045D000E40BF50B661F771F881F991F1A9469F764
:1045E00060957095809590959B01AC01BD01CF01C0
:1045F00008952F923F924F925F926F927F928F9287
:104600009F92AF92BF92CF92DF92EF92FF920F9361
:104610001F93CF93DF93CDB7DEB7CA1BDB0B0FB66B
:10462000F894DEBF0FBECDBF09942A883988488828
:104630005F846E847D848C849B84AA84B984C884BE
:10464000DF80EE80FD800C811B81AA81B981CE0FB5
:10465000D11D0FB6F894DEBF0FBECDBFED0108959A
:04466000F894FFCFFC
:0846640000000000000000004E
:00000001FF
